{
  "contractName": "ZombieHelper",
  "abi": [
    {
      "anonymous": false,
      "inputs": [
        {
          "indexed": false,
          "internalType": "uint256",
          "name": "zombieId",
          "type": "uint256"
        },
        {
          "indexed": false,
          "internalType": "string",
          "name": "name",
          "type": "string"
        },
        {
          "indexed": false,
          "internalType": "uint256",
          "name": "dna",
          "type": "uint256"
        }
      ],
      "name": "NewZombie",
      "type": "event"
    },
    {
      "anonymous": false,
      "inputs": [
        {
          "indexed": true,
          "internalType": "address",
          "name": "previousOwner",
          "type": "address"
        },
        {
          "indexed": true,
          "internalType": "address",
          "name": "newOwner",
          "type": "address"
        }
      ],
      "name": "OwnershipTransferred",
      "type": "event"
    },
    {
      "inputs": [
        {
          "internalType": "string",
          "name": "_name",
          "type": "string"
        }
      ],
      "name": "createRandomZombie",
      "outputs": [],
      "stateMutability": "nonpayable",
      "type": "function"
    },
    {
      "inputs": [
        {
          "internalType": "uint256",
          "name": "_zombieId",
          "type": "uint256"
        },
        {
          "internalType": "uint256",
          "name": "_kittyId",
          "type": "uint256"
        }
      ],
      "name": "feedOnKitty",
      "outputs": [],
      "stateMutability": "nonpayable",
      "type": "function"
    },
    {
      "inputs": [],
      "name": "isOwner",
      "outputs": [
        {
          "internalType": "bool",
          "name": "",
          "type": "bool"
        }
      ],
      "stateMutability": "view",
      "type": "function"
    },
    {
      "inputs": [],
      "name": "owner",
      "outputs": [
        {
          "internalType": "address",
          "name": "",
          "type": "address"
        }
      ],
      "stateMutability": "view",
      "type": "function"
    },
    {
      "inputs": [],
      "name": "renounceOwnership",
      "outputs": [],
      "stateMutability": "nonpayable",
      "type": "function"
    },
    {
      "inputs": [
        {
          "internalType": "address",
          "name": "_address",
          "type": "address"
        }
      ],
      "name": "setKittyContractAddress",
      "outputs": [],
      "stateMutability": "nonpayable",
      "type": "function"
    },
    {
      "inputs": [
        {
          "internalType": "address",
          "name": "newOwner",
          "type": "address"
        }
      ],
      "name": "transferOwnership",
      "outputs": [],
      "stateMutability": "nonpayable",
      "type": "function"
    },
    {
      "inputs": [
        {
          "internalType": "uint256",
          "name": "",
          "type": "uint256"
        }
      ],
      "name": "zombieToOwner",
      "outputs": [
        {
          "internalType": "address",
          "name": "",
          "type": "address"
        }
      ],
      "stateMutability": "view",
      "type": "function"
    },
    {
      "inputs": [
        {
          "internalType": "uint256",
          "name": "",
          "type": "uint256"
        }
      ],
      "name": "zombies",
      "outputs": [
        {
          "internalType": "string",
          "name": "name",
          "type": "string"
        },
        {
          "internalType": "uint256",
          "name": "dna",
          "type": "uint256"
        },
        {
          "internalType": "uint32",
          "name": "level",
          "type": "uint32"
        },
        {
          "internalType": "uint32",
          "name": "readyTime",
          "type": "uint32"
        },
        {
          "internalType": "uint16",
          "name": "winCount",
          "type": "uint16"
        },
        {
          "internalType": "uint16",
          "name": "lossCount",
          "type": "uint16"
        }
      ],
      "stateMutability": "view",
      "type": "function"
    },
    {
      "inputs": [],
      "name": "withdraw",
      "outputs": [],
      "stateMutability": "nonpayable",
      "type": "function"
    },
    {
      "inputs": [
        {
          "internalType": "uint256",
          "name": "_fee",
          "type": "uint256"
        }
      ],
      "name": "setLevelUpFee",
      "outputs": [],
      "stateMutability": "nonpayable",
      "type": "function"
    },
    {
      "inputs": [
        {
          "internalType": "uint256",
          "name": "_zombieId",
          "type": "uint256"
        }
      ],
      "name": "levelUp",
      "outputs": [],
      "stateMutability": "payable",
      "type": "function"
    },
    {
      "inputs": [
        {
          "internalType": "uint256",
          "name": "_zombieId",
          "type": "uint256"
        },
        {
          "internalType": "string",
          "name": "_newName",
          "type": "string"
        }
      ],
      "name": "changeName",
      "outputs": [],
      "stateMutability": "nonpayable",
      "type": "function"
    },
    {
      "inputs": [
        {
          "internalType": "uint256",
          "name": "_zombieId",
          "type": "uint256"
        },
        {
          "internalType": "uint256",
          "name": "_newDna",
          "type": "uint256"
        }
      ],
      "name": "changeDna",
      "outputs": [],
      "stateMutability": "nonpayable",
      "type": "function"
    },
    {
      "inputs": [
        {
          "internalType": "address",
          "name": "_owner",
          "type": "address"
        }
      ],
      "name": "getZombiesByOwner",
      "outputs": [
        {
          "internalType": "uint256[]",
          "name": "",
          "type": "uint256[]"
        }
      ],
      "stateMutability": "view",
      "type": "function"
    }
  ],
  "bytecode": "0x60806040526010600155600154600a6200001a91906200028b565b6002556201518060035566038d7ea4c680006008553480156200003c57600080fd5b50336000806101000a81548173ffffffffffffffffffffffffffffffffffffffff021916908373ffffffffffffffffffffffffffffffffffffffff16021790555060008054906101000a900473ffffffffffffffffffffffffffffffffffffffff1673ffffffffffffffffffffffffffffffffffffffff16600073ffffffffffffffffffffffffffffffffffffffff167f8be0079c531659141344cd1fd0a4f28419497f9722a3daafe3b4186f6b6457e060405160405180910390a3620002dc565b7f4e487b7100000000000000000000000000000000000000000000000000000000600052601160045260246000fd5b60008160011c9050919050565b6000808291508390505b60018511156200018c57808604811115620001645762000163620000fe565b5b6001851615620001745780820291505b808102905062000184856200012d565b945062000144565b94509492505050565b600082620001a757600190506200027a565b81620001b757600090506200027a565b8160018114620001d05760028114620001db5762000211565b60019150506200027a565b60ff841115620001f057620001ef620000fe565b5b8360020a9150848211156200020a5762000209620000fe565b5b506200027a565b5060208310610133831016604e8410600b84101617156200024b5782820a905083811115620002455762000244620000fe565b5b6200027a565b6200025a84848460016200013a565b92509050818404811115620002745762000273620000fe565b5b81810290505b9392505050565b6000819050919050565b6000620002988262000281565b9150620002a58362000281565b9250620002d47fffffffffffffffffffffffffffffffffffffffffffffffffffffffffffffffff848462000195565b905092915050565b611d9080620002ec6000396000f3fe6080604052600436106100e85760003560e01c80635faf28801161008a5780638f32d59b116100595780638f32d59b146102c2578063c39cbef1146102ed578063ccf670f814610316578063f2fde38b1461033f576100e8565b80635faf28801461022e578063715018a6146102575780637bff0a011461026e5780638da5cb5b14610297576100e8565b80633ccfd60b116100c65780633ccfd60b146101745780634412e1041461018b578063528b7b8f146101c85780635f4623f114610205576100e8565b80630ce90ec2146100ed57806317a7f4cc146101095780632052465e14610132575b600080fd5b61010760048036038101906101029190611343565b610368565b005b34801561011557600080fd5b50610130600480360381019061012b9190611370565b6103f0565b005b34801561013e57600080fd5b5061015960048036038101906101549190611343565b61050e565b60405161016b96959493929190611494565b60405180910390f35b34801561018057600080fd5b5061018961061e565b005b34801561019757600080fd5b506101b260048036038101906101ad919061155a565b610685565b6040516101bf9190611645565b60405180910390f35b3480156101d457600080fd5b506101ef60048036038101906101ea9190611343565b6107d8565b6040516101fc9190611676565b60405180910390f35b34801561021157600080fd5b5061022c6004803603810190610227919061155a565b61080b565b005b34801561023a57600080fd5b5061025560048036038101906102509190611370565b610860565b005b34801561026357600080fd5b5061026c610948565b005b34801561027a57600080fd5b50610295600480360381019061029091906117c6565b610a17565b005b3480156102a357600080fd5b506102ac610a98565b6040516102b99190611676565b60405180910390f35b3480156102ce57600080fd5b506102d7610ac1565b6040516102e4919061182a565b60405180910390f35b3480156102f957600080fd5b50610314600480360381019061030f9190611845565b610b18565b005b34801561032257600080fd5b5061033d60048036038101906103389190611343565b610c10565b005b34801561034b57600080fd5b506103666004803603810190610361919061155a565b610c2b565b005b600854341461037657600080fd5b60006004828154811061038c5761038b6118a1565b5b906000526020600020906003020190506103ca60018260020160009054906101000a900463ffffffff1663ffffffff16610c4890919063ffffffff16565b8160020160006101000a81548163ffffffff021916908363ffffffff1602179055505050565b6000600760009054906101000a900473ffffffffffffffffffffffffffffffffffffffff1673ffffffffffffffffffffffffffffffffffffffff1663e98b7f4d836040518263ffffffff1660e01b815260040161044d91906118d0565b61014060405180830381865afa15801561046b573d6000803e3d6000fd5b505050506040513d601f19601f8201168201806040525081019061048f919061192c565b9091929394959697985090919293949596975090919293949596509091929394955090919293945090919293509091925090915090508091505061050983826040518060400160405280600581526020017f6b69747479000000000000000000000000000000000000000000000000000000815250610c80565b505050565b6004818154811061051e57600080fd5b906000526020600020906003020160009150905080600001805461054190611a3a565b80601f016020809104026020016040519081016040528092919081815260200182805461056d90611a3a565b80156105ba5780601f1061058f576101008083540402835291602001916105ba565b820191906000526020600020905b81548152906001019060200180831161059d57829003601f168201915b5050505050908060010154908060020160009054906101000a900463ffffffff16908060020160049054906101000a900463ffffffff16908060020160089054906101000a900461ffff169080600201600a9054906101000a900461ffff16905086565b610626610ac1565b61062f57600080fd5b6000610639610a98565b90508073ffffffffffffffffffffffffffffffffffffffff166108fc479081150290604051600060405180830381858888f19350505050158015610681573d6000803e3d6000fd5b5050565b60606000600660008473ffffffffffffffffffffffffffffffffffffffff1673ffffffffffffffffffffffffffffffffffffffff1681526020019081526020016000205467ffffffffffffffff8111156106e2576106e161169b565b5b6040519080825280602002602001820160405280156107105781602001602082028036833780820191505090505b5090506000805b6004805490508110156107cd578473ffffffffffffffffffffffffffffffffffffffff166005600083815260200190815260200160002060009054906101000a900473ffffffffffffffffffffffffffffffffffffffff1673ffffffffffffffffffffffffffffffffffffffff1614156107ba578083838151811061079f5761079e6118a1565b5b60200260200101818152505081806107b690611a9b565b9250505b80806107c590611a9b565b915050610717565b508192505050919050565b60056020528060005260406000206000915054906101000a900473ffffffffffffffffffffffffffffffffffffffff1681565b610813610ac1565b61081c57600080fd5b80600760006101000a81548173ffffffffffffffffffffffffffffffffffffffff021916908373ffffffffffffffffffffffffffffffffffffffff16021790555050565b6014828160048281548110610878576108776118a1565b5b906000526020600020906003020160020160009054906101000a900463ffffffff1663ffffffff1610156108ab57600080fd5b836005600082815260200190815260200160002060009054906101000a900473ffffffffffffffffffffffffffffffffffffffff1673ffffffffffffffffffffffffffffffffffffffff163373ffffffffffffffffffffffffffffffffffffffff161461091757600080fd5b836004868154811061092c5761092b6118a1565b5b9060005260206000209060030201600101819055505050505050565b610950610ac1565b61095957600080fd5b600073ffffffffffffffffffffffffffffffffffffffff1660008054906101000a900473ffffffffffffffffffffffffffffffffffffffff1673ffffffffffffffffffffffffffffffffffffffff167f8be0079c531659141344cd1fd0a4f28419497f9722a3daafe3b4186f6b6457e060405160405180910390a360008060006101000a81548173ffffffffffffffffffffffffffffffffffffffff021916908373ffffffffffffffffffffffffffffffffffffffff160217905550565b6000600660003373ffffffffffffffffffffffffffffffffffffffff1673ffffffffffffffffffffffffffffffffffffffff1681526020019081526020016000205414610a6357600080fd5b6000610a6e82610e1d565b9050606481610a7d9190611b13565b81610a889190611b44565b9050610a948282610e62565b5050565b60008060009054906101000a900473ffffffffffffffffffffffffffffffffffffffff16905090565b60008060009054906101000a900473ffffffffffffffffffffffffffffffffffffffff1673ffffffffffffffffffffffffffffffffffffffff163373ffffffffffffffffffffffffffffffffffffffff1614905090565b6002828160048281548110610b3057610b2f6118a1565b5b906000526020600020906003020160020160009054906101000a900463ffffffff1663ffffffff161015610b6357600080fd5b836005600082815260200190815260200160002060009054906101000a900473ffffffffffffffffffffffffffffffffffffffff1673ffffffffffffffffffffffffffffffffffffffff163373ffffffffffffffffffffffffffffffffffffffff1614610bcf57600080fd5b8360048681548110610be457610be36118a1565b5b90600052602060002090600302016000019080519060200190610c08929190611256565b505050505050565b610c18610ac1565b610c2157600080fd5b8060088190555050565b610c33610ac1565b610c3c57600080fd5b610c45816110d9565b50565b6000808284610c579190611b78565b90508363ffffffff168163ffffffff161015610c7657610c75611bb2565b5b8091505092915050565b826005600082815260200190815260200160002060009054906101000a900473ffffffffffffffffffffffffffffffffffffffff1673ffffffffffffffffffffffffffffffffffffffff163373ffffffffffffffffffffffffffffffffffffffff1614610cec57600080fd5b600060048581548110610d0257610d016118a1565b5b90600052602060002090600302019050610d1b816111d0565b610d2457600080fd5b60025484610d329190611b13565b935060006002858360010154610d489190611be1565b610d529190611c37565b9050604051602001610d6390611cbf565b6040516020818303038152906040528051906020012084604051602001610d8a9190611d05565b604051602081830303815290604052805190602001201415610dcd576063606482610db59190611b13565b82610dc09190611b44565b610dca9190611be1565b90505b610e0c6040518060400160405280600681526020017f4e6f4e616d65000000000000000000000000000000000000000000000000000081525082610e62565b610e15826111f7565b505050505050565b60008082604051602001610e319190611d05565b6040516020818303038152906040528051906020012060001c905060025481610e5a9190611b13565b915050919050565b60046040518060c00160405280848152602001838152602001600163ffffffff16815260200160035442610e969190611be1565b63ffffffff168152602001600061ffff168152602001600061ffff1681525090806001815401808255809150506001900390600052602060002090600302016000909190919091506000820151816000019080519060200190610efa929190611256565b506020820151816001015560408201518160020160006101000a81548163ffffffff021916908363ffffffff16021790555060608201518160020160046101000a81548163ffffffff021916908363ffffffff16021790555060808201518160020160086101000a81548161ffff021916908361ffff16021790555060a082015181600201600a6101000a81548161ffff021916908361ffff160217905550505060006001600480549050610faf9190611b44565b9050336005600083815260200190815260200160002060006101000a81548173ffffffffffffffffffffffffffffffffffffffff021916908373ffffffffffffffffffffffffffffffffffffffff1602179055506110566001600660003373ffffffffffffffffffffffffffffffffffffffff1673ffffffffffffffffffffffffffffffffffffffff1681526020019081526020016000205461122a90919063ffffffff16565b600660003373ffffffffffffffffffffffffffffffffffffffff1673ffffffffffffffffffffffffffffffffffffffff168152602001908152602001600020819055507f88f026aacbbecc90c18411df4b1185fd8d9be2470f1962f192bf84a27d0704b78184846040516110cc93929190611d1c565b60405180910390a1505050565b600073ffffffffffffffffffffffffffffffffffffffff168173ffffffffffffffffffffffffffffffffffffffff16141561111357600080fd5b8073ffffffffffffffffffffffffffffffffffffffff1660008054906101000a900473ffffffffffffffffffffffffffffffffffffffff1673ffffffffffffffffffffffffffffffffffffffff167f8be0079c531659141344cd1fd0a4f28419497f9722a3daafe3b4186f6b6457e060405160405180910390a3806000806101000a81548173ffffffffffffffffffffffffffffffffffffffff021916908373ffffffffffffffffffffffffffffffffffffffff16021790555050565b6000428260020160049054906101000a900463ffffffff1663ffffffff1611159050919050565b600354426112059190611be1565b8160020160046101000a81548163ffffffff021916908363ffffffff16021790555050565b60008082846112399190611be1565b90508381101561124c5761124b611bb2565b5b8091505092915050565b82805461126290611a3a565b90600052602060002090601f01602090048101928261128457600085556112cb565b82601f1061129d57805160ff19168380011785556112cb565b828001600101855582156112cb579182015b828111156112ca5782518255916020019190600101906112af565b5b5090506112d891906112dc565b5090565b5b808211156112f55760008160009055506001016112dd565b5090565b6000604051905090565b600080fd5b600080fd5b6000819050919050565b6113208161130d565b811461132b57600080fd5b50565b60008135905061133d81611317565b92915050565b60006020828403121561135957611358611303565b5b60006113678482850161132e565b91505092915050565b6000806040838503121561138757611386611303565b5b60006113958582860161132e565b92505060206113a68582860161132e565b9150509250929050565b600081519050919050565b600082825260208201905092915050565b60005b838110156113ea5780820151818401526020810190506113cf565b838111156113f9576000848401525b50505050565b6000601f19601f8301169050919050565b600061141b826113b0565b61142581856113bb565b93506114358185602086016113cc565b61143e816113ff565b840191505092915050565b6114528161130d565b82525050565b600063ffffffff82169050919050565b61147181611458565b82525050565b600061ffff82169050919050565b61148e81611477565b82525050565b600060c08201905081810360008301526114ae8189611410565b90506114bd6020830188611449565b6114ca6040830187611468565b6114d76060830186611468565b6114e46080830185611485565b6114f160a0830184611485565b979650505050505050565b600073ffffffffffffffffffffffffffffffffffffffff82169050919050565b6000611527826114fc565b9050919050565b6115378161151c565b811461154257600080fd5b50565b6000813590506115548161152e565b92915050565b6000602082840312156115705761156f611303565b5b600061157e84828501611545565b91505092915050565b600081519050919050565b600082825260208201905092915050565b6000819050602082019050919050565b6115bc8161130d565b82525050565b60006115ce83836115b3565b60208301905092915050565b6000602082019050919050565b60006115f282611587565b6115fc8185611592565b9350611607836115a3565b8060005b8381101561163857815161161f88826115c2565b975061162a836115da565b92505060018101905061160b565b5085935050505092915050565b6000602082019050818103600083015261165f81846115e7565b905092915050565b6116708161151c565b82525050565b600060208201905061168b6000830184611667565b92915050565b600080fd5b600080fd5b7f4e487b7100000000000000000000000000000000000000000000000000000000600052604160045260246000fd5b6116d3826113ff565b810181811067ffffffffffffffff821117156116f2576116f161169b565b5b80604052505050565b60006117056112f9565b905061171182826116ca565b919050565b600067ffffffffffffffff8211156117315761173061169b565b5b61173a826113ff565b9050602081019050919050565b82818337600083830152505050565b600061176961176484611716565b6116fb565b90508281526020810184848401111561178557611784611696565b5b611790848285611747565b509392505050565b600082601f8301126117ad576117ac611691565b5b81356117bd848260208601611756565b91505092915050565b6000602082840312156117dc576117db611303565b5b600082013567ffffffffffffffff8111156117fa576117f9611308565b5b61180684828501611798565b91505092915050565b60008115159050919050565b6118248161180f565b82525050565b600060208201905061183f600083018461181b565b92915050565b6000806040838503121561185c5761185b611303565b5b600061186a8582860161132e565b925050602083013567ffffffffffffffff81111561188b5761188a611308565b5b61189785828601611798565b9150509250929050565b7f4e487b7100000000000000000000000000000000000000000000000000000000600052603260045260246000fd5b60006020820190506118e56000830184611449565b92915050565b6118f48161180f565b81146118ff57600080fd5b50565b600081519050611911816118eb565b92915050565b60008151905061192681611317565b92915050565b6000806000806000806000806000806101408b8d0312156119505761194f611303565b5b600061195e8d828e01611902565b9a5050602061196f8d828e01611902565b99505060406119808d828e01611917565b98505060606119918d828e01611917565b97505060806119a28d828e01611917565b96505060a06119b38d828e01611917565b95505060c06119c48d828e01611917565b94505060e06119d58d828e01611917565b9350506101006119e78d828e01611917565b9250506101206119f98d828e01611917565b9150509295989b9194979a5092959850565b7f4e487b7100000000000000000000000000000000000000000000000000000000600052602260045260246000fd5b60006002820490506001821680611a5257607f821691505b60208210811415611a6657611a65611a0b565b5b50919050565b7f4e487b7100000000000000000000000000000000000000000000000000000000600052601160045260246000fd5b6000611aa68261130d565b91507fffffffffffffffffffffffffffffffffffffffffffffffffffffffffffffffff821415611ad957611ad8611a6c565b5b600182019050919050565b7f4e487b7100000000000000000000000000000000000000000000000000000000600052601260045260246000fd5b6000611b1e8261130d565b9150611b298361130d565b925082611b3957611b38611ae4565b5b828206905092915050565b6000611b4f8261130d565b9150611b5a8361130d565b925082821015611b6d57611b6c611a6c565b5b828203905092915050565b6000611b8382611458565b9150611b8e83611458565b92508263ffffffff03821115611ba757611ba6611a6c565b5b828201905092915050565b7f4e487b7100000000000000000000000000000000000000000000000000000000600052600160045260246000fd5b6000611bec8261130d565b9150611bf78361130d565b9250827fffffffffffffffffffffffffffffffffffffffffffffffffffffffffffffffff03821115611c2c57611c2b611a6c565b5b828201905092915050565b6000611c428261130d565b9150611c4d8361130d565b925082611c5d57611c5c611ae4565b5b828204905092915050565b600081905092915050565b7f6b69747479000000000000000000000000000000000000000000000000000000600082015250565b6000611ca9600583611c68565b9150611cb482611c73565b600582019050919050565b6000611cca82611c9c565b9150819050919050565b6000611cdf826113b0565b611ce98185611c68565b9350611cf98185602086016113cc565b80840191505092915050565b6000611d118284611cd4565b915081905092915050565b6000606082019050611d316000830186611449565b8181036020830152611d438185611410565b9050611d526040830184611449565b94935050505056fea264697066735822122054bc6d4339bcafa8bc18fb60ed9064dc22b6be68f9ac711f0467c093e2da254864736f6c634300080a0033",
  "immutableReferences": {},
  "source": "// SPDX-License-Identifier: MIT\npragma solidity ^0.8.10;\n\nimport \"./zombiefeeding.sol\";\nimport \"./safemath.sol\";\n\ncontract ZombieHelper is ZombieFeeding {\n\n  using SafeMath for uint256;\n  using SafeMath32 for uint32;\n  using SafeMath16 for uint16;\n\n  uint levelUpFee = 0.001 ether;\n\n  modifier aboveLevel(uint _level, uint _zombieId) {\n    require(zombies[_zombieId].level >= _level);\n    _;\n  }\n\n  function withdraw() external onlyOwner {\n    address payable _owner = payable(owner());\n    _owner.transfer(address(this).balance);\n  }\n\n  function setLevelUpFee(uint _fee) external onlyOwner {\n    levelUpFee = _fee;\n  }\n\n  function levelUp(uint _zombieId) external payable {\n    require(msg.value == levelUpFee);\n    Zombie storage _zombie = zombies[_zombieId];\n    _zombie.level = _zombie.level.add(1);\n  }\n\n  function changeName(uint _zombieId, string memory _newName) external aboveLevel(2, _zombieId) onlyOwnerOf(_zombieId) {\n    zombies[_zombieId].name = _newName;\n  }\n\n  function changeDna(uint _zombieId, uint _newDna) external aboveLevel(20, _zombieId) onlyOwnerOf(_zombieId) {\n    zombies[_zombieId].dna = _newDna;\n  }\n\n  function getZombiesByOwner(address _owner) external view returns(uint[] memory) {\n    uint[] memory result = new uint[](ownerZombieCount[_owner]);\n    uint counter = 0;\n    for (uint i = 0; i < zombies.length; i++) {\n      if (zombieToOwner[i] == _owner) {\n        result[counter] = i;\n        counter++;\n      }\n    }\n    return result;\n  }\n\n}\n",
  "sourcePath": "D:\\Projects\\Training\\Solidity\\CryptoZombies\\contracts\\zombiehelper.sol",
  "compiler": {
    "name": "solc",
    "version": "0.8.10+commit.fc410830.Emscripten.clang"
  },
  "schemaVersion": "3.4.3",
  "updatedAt": "2022-01-24T19:48:09.298Z",
  "devdoc": {
    "kind": "dev",
    "methods": {
      "isOwner()": {
        "returns": {
          "_0": "true if `msg.sender` is the owner of the contract."
        }
      },
      "owner()": {
        "returns": {
          "_0": "the address of the owner."
        }
      },
      "renounceOwnership()": {
        "details": "Allows the current owner to relinquish control of the contract."
      },
      "transferOwnership(address)": {
        "details": "Allows the current owner to transfer control of the contract to a newOwner.",
        "params": {
          "newOwner": "The address to transfer ownership to."
        }
      }
    },
    "version": 1
  },
  "userdoc": {
    "kind": "user",
    "methods": {
      "renounceOwnership()": {
        "notice": "Renouncing to ownership will leave the contract without an owner. It will not be possible to call the functions with the `onlyOwner` modifier anymore."
      }
    },
    "version": 1
  }
}